:0400000080311A2809
:100008007E1480312100101E10282000101E102898
:1000180086313926803118282100901E18282000A2
:10002800901E182886314F267E10090080311C2822
:1000380020308400003085002A30863164268031E3
:10004800A030840000308500443086316426803139
:100058007E1020002F287A20803163208031CB2029
:1000680080316D20803163208031812180316D2085
:10007800803163208031732180316D20803163208D
:1000880080317A2180316D208031632080316A216E
:1000980080316D20803163208031592180316D207D
:1000A800803163208031622180316D20803163206E
:1000B8008031882180316D20803103006128BA2089
:1000C8008031F001F101BD208031B72122000C14EC
:1000D800080022000C10B9212B35A03E86008701AC
:1000E8007008C03F7108C13FAB0A08008620803104
:1000F80081208031AA218031942970302100990013
:100108009801080022008D018C018E013E302400E8
:100118008C00F0308D00FF308E00163023008C00EC
:10012800F0308D00CF308E00703021008D00FF3010
:100138008E0036308C00951700308B1B0130F00094
:100148008B1355303C008F00AA308F000F101230EF
:100158003D009F0055303C008F00AA308F000F14DF
:10016800701CB8288B1708008B1308002000181083
:100178000800181DC6281810710897007008960006
:1001880018140800710897007008960008002000ED
:100198002C30CA01CB01CC01CD013A218031173076
:1001A800F0008830F1002C30F200582180317F3087
:1001B8002000CD00FF30CC00CB00CA002C303A2103
:1001C80080312F30F0008830F1002C30F2005821B7
:1001D800803180302000CD000030CC00CB00CA0038
:1001E8002C303A2180310230F0008830F1002C3078
:1001F800F200582180317F302000CD005C30CC00E7
:100208002F30CB006830CA002C303A2180311930A9
:10021800F0008830F1002C30F20058218031CD30C8
:100228002000CD00B130CC00A430CB00F530CA009E
:100238002C303A2180312430F0008830F1002C3005
:10024800F2005821803147302000CD00C030CC006A
:100258001130CB00B430CA002C303A2180310E3036
:10026800F0008830F1002C30F2005829FB00CD1F37
:100278004E297B0886002D3087018100FB0ACA09B8
:10028800CB09CC09CD09CA0A0319CB0A0319CC0A30
:100298000319CD0A4D08F3004C08F2004B08F10091
:1002A8004A08F0007B081E2B0800FF302000CD0014
:1002B800CC008030CB002C30CA013A298030200095
:1002C800CD002C30CC01CB01CA013A29FF302000E7
:1002D800CD00CC00CB008030CA002C303A29FF304A
:1002E800F301F201F100F0002C301E2BFF30F0007A
:1002F800F100F200F3002C301E2BFF30F0002C3000
:10030800F101F201F3011E2B3A302000D2008830AF
:10031800D3008030D7002C30D601D501D401C429B0
:10032800210090121012083023009F0080309D0099
:1003380024309E0044309B009C0120000830AA0114
:10034800EA00A901A8012100901608003030200019
:1003580098009901970196011708E900E801160825
:10036800E8041010B7291814080020001708F30033
:10037800F2011608F2047308F1007208F000080090
:10038800E6005430E0005308D9005208D800D20AD9
:100398000319D30A8400590885000008E700670894
:1003A8000319A42A253067060319E129660886007F
:1003B800870167088100E60AC729E101E429611677
:1003C8005308D9005208D800D20A0319D30A840066
:1003D800590885000008E70084006D3004020318FE
:1003E800C72987310435003E8200611E092A60084A
:1003F80086008701403FE200413FE300423FE400BE
:10040800433FE5000430E0071B2A600886008701A7
:10041800403FD800413FD9005808E2005908E3009E
:10042800890D893B8909E400E500E00AE00AE51F37
:100438002A2A0330E104E209E309E409E509E20AAA
:100448000319E30A0319E40A0319E50AE701E70AAD
:100458006708D800DA30D901D835D90DD835D90D83
:10046800580784008730593D8500003FDA00013F76
:10047800DB00023FDC00033FDD006502031D4E2A5E
:100488005C086402031D4E2A5B086302031D4E2AA2
:100498005A086202031C552A0A30E70A6706031D38
:1004A8002C2A6108033903195F2A660886002D3053
:1004B80087018100E60A6708DE00DF01DE1BDF0333
:1004C800FF30DE07031CDF035E0F6D2A5F0A031986
:1004D800C7290A30CA00CB01CC01CD015F088500CD
:1004E8005E088400DA308435850D8435850D8407EF
:1004F8008730853D003FF000013FF100023FF200E8
:10050800033FF3006508F7006408F6006308F50088
:100518006208F400A92280317308D1007208D00063
:100528007108CF007008CE00E82280314A08303EBA
:10053800E70066088600870167088100E60A642AE2
:1005480066088600870181010800F801F901FA01AF
:10055800FB0173087204710470040319DF2AFC019B
:10056800FC0AF31BBC2AF035F10DF20DF30DB42A89
:10057800F835F90DFA0DFB0D73087702031DCE2A25
:1005880072087602031DCE2A71087502031DCE2A51
:1005980070087402031CD92A7008F4027108F53B2C
:1005A8007208F63B7308F73B7814F336F20CF10C3B
:1005B800F00CFC0BBC2A7B08F3007A08F2007908DF
:1005C800F1007808F00008004D084C044B044A0478
:1005D8000319152BFD01FD0ACD1BF72ACA35CB0DD2
:1005E800CC0DCD0DEF2A4D085102031D052B4C08EB
:1005F8005002031D052B4B084F02031D052B4A080B
:100608004E02031C0F2B4A08CE024B08CF3B4C0866
:10061800D03B4D08D13BCD36CC0CCB0CCA0CFD0BD6
:10062800F72A5108CD005008CC004F08CB004E08DF
:10063800CA000800F5007308FA007208F90071088A
:10064800F8007008F700F601F401F40A7308031DB6
:10065800342B7208031D342B01307102031CCF2D7B
:100668007308031D3B2B01307202031CE92C283050
:1006780078026B30793BEE307A3B031C4E2B00300E
:10068800F7022830F83B6B30F93BEE30FA3B043088
:10069800F600712B943078023530793B77307A3B0D
:1006A800031C602B0030F7029430F83B3530F93BDF
:1006B8007730FA3B0230F600CA3078029A30793B3C
:1006C8003B307A3B031C712B0030F702CA30F83BF1
:1006D8009A30F93B3B30FA3B7614760803197C2BA9
:1006E8007508860087017608303E8100F50AF40116
:1006F8000830F6017802AF30793B2F307A3B031C83
:10070800902B0030F7020830F83BAF30F93B2F3020
:10071800FA3B0830F600B32B84307802D730793BA7
:1007280017307A3B031CA22B0030F7028430F83BC9
:10073800D730F93B1730FA3B0430F600C230780264
:10074800EB30793B0B307A3B031CB32B0030F702BC
:10075800C230F83BEB30F93B0B30FA3BF614E13092
:100768007802F530793B05307A3B031CC42B003006
:10077800F702E130F83BF530F93B0530FA3B7614E7
:100788007608031DCA2B7408031DD22B7508860032
:1007980087017608303E8100F50AF401B430F6018D
:1007A8007802C430793B04307A3B031CE62B0030D6
:1007B800F702B430F83BC430F93B0430FA3B083058
:1007C800F600092C5A3078026230793B02307A3BC5
:1007D800031CF82B0030F7025A30F83B6230F93B23
:1007E8000230FA3B0430F6002D3078023130793B84
:1007F80001307A3B031C092C0030F7022D30F83BFE
:100808003130F93B0130FA3BF6147A088030031D89
:10081800152C77029630783B9830793B031C1D2CB9
:100828008030F7029630F83B9830F93B0030FA3BBD
:1008380076147608031D232C7408031D2B2C7508C9
:10084800860087017608303E8100F50AF401F6013A
:100858007A08031D352C123078027A30793B031C54
:10086800402C0030F7021230F83B7A30F93B003068
:10087800FA3B0830F600672C7A08031D492C09302A
:1008880078023D30793B031C532C0030F7020930C5
:10089800F83B3D30F93B0030FA3B0430F6007A086B
:1008A8008030031D5F2C77028430783B1E30793B03
:1008B800031C672C8030F7028430F83B1E30F93B6C
:1008C8000030FA3BF6147A084030031D732C770287
:1008D8004230783B0F30793B031C7B2C4030F702C9
:1008E8004230F83B0F30F93B0030FA3B761476087B
:1008F800031D812C7408031D892C75088600870147
:100908007608303E8100F50AF401F6017A08031DE5
:10091800932C353078020C30793B031C9E2C003028
:10092800F7023530F83B0C30F93B0030FA3B083021
:10093800F600C72C7A088030031DAA2C77021A30DB
:10094800783B0630793B031CB32C8030F7021A3011
:10095800F83B0630F93B0030FA3B0430F6007A08E1
:100968004030031DBF2C77020D30783B0330793BB4
:10097800031CC72C4030F7020D30F83B0330F93B1D
:100988000030FA3BF6147A08A030031DD32C770206
:100998008630783B0130793B031CDB2CA030F70212
:1009A8008630F83B0130F93B0030FA3B7614760884
:1009B800031DE12C7408031DE92C750886008701C6
:1009C8007608303E8100F50AF401F6017A08803095
:1009D800031DF62C77023830783B0130793B031C35
:1009E800002D8030F7023830F83B0130F93B0030F9
:1009F800FA3B0830F600292D7A08031D0C2D7908DA
:100A08004030031D0D2D77029C30783B031C152DBB
:100A18004030F7029C30F83B0030F93BFA3B043099
:100A2800F6007A08031D212D79082030031D222D98
:100A380077024E30783B031C292D2030F7024E30C8
:100A4800F83B0030F93BFA3BF6147A08031D352DC4
:100A580079081030031D362D77022730783B031CA8
:100A68003D2D1030F7022730F83B0030F93BFA3BB8
:100A780076147608031D432D7408031D4B2D750845
:100A8800860087017608303E8100F50AF4011F30A0
:100A9800F6017802403003197702031C5A2D4030C2
:100AA800F7021F30F83B0830F600732D0F3078023C
:100AB800A03003197702031C672DA030F7020F300E
:100AC800F83B0430F60007307802D030031977027B
:100AD800031C732DD030F7020730F83BF6140330AF
:100AE8007802E83003197702031C7F2DE830F702FB
:100AF8000330F83B76147608031D852D7408031D12
:100B08008D2D7508860087017608303E8100F50A2C
:100B1800F4010330F6017802203003197702031C30
:100B28009C2D2030F7020330F83B0830F600B52D35
:100B380001307802903003197702031CA92D9030F8
:100B4800F7020130F83B0430F60000307802C83074
:100B580003197702031CB52DC830F7020030F83BA3
:100B6800F61400307802643003197702031CC12D93
:100B78006430F7020030F83B76147608031DC72D61
:100B88007408031DCF2D7508860087017608303E4E
:100B98008100F50AF4010030F6017802503003199B
:100BA8007702031CDE2D5030F7020030F83B083086
:100BB800F600F72D00307802283003197702031C5D
:100BC800EB2D2830F7020030F83B0430F6000030F7
:100BD8007802143003197702031CF72D1430F7023A
:100BE8000030F83BF614003078020A300319770217
:100BF800031C032E0A30F7020030F83B76147608FF
:100C0800031D092E7408031D102E75088600870120
:100C18007608303E8100F50A0830F6017702031C99
:100C28001A2E0830F7020830F600292E0430770211
:100C3800031C222E0430F7020430F600023077023B
:100C4800031C292EF703F703F614770803192E2E31
:100C5800F70376147508860087017608303E810010
:100C6800F50A750886008101080008306A02031831
:100C78004C2E2A08203E86008701010823009A008E
:100C880020000830AA0A2A020318AA01EA0A080062
:100C980021001012080023009D1C542E9D139D173F
:100CA80020002908DC3E86008701230019088100FE
:100CB80020000830A90A29020318A901A80A080077
:0C0CC800640080010131890B652E0034AE
:100E00008231A42A8131C7298131C7298131C7297B
:100E10008131C7298131C7298131C7298131C7294A
:100E20008131C7298131C7298131C7298131C7293A
:100E30008131C7298131C7298131C7298131C7292A
:100E40008131C7298131C7298131C7298131C7291A
:100E50008131C7298131C7298131C7298131C7290A
:100E60008131C7298131C7298131C7298131C729FA
:100E70008131C7298131C7298131C7298131C729EA
:100E80008131C7298131C7298131C7298131C729DA
:100E90008131C7298131C7298131C7298131C729CA
:100EA0008131C7298131C7298131C7298131C729BA
:100EB0008131C7298131C7298131C7298131C729AA
:100EC0008131C7298131C7298131C7298131C7299A
:100ED0008131C7298131C7298131C7298131C7298A
:100EE0008131C7298131C7298131C7298131C7297A
:100EF0008131C7298131C7298131C7298131C7296A
:100F00008131C7298131C7298131C7298131C72959
:100F10008131C7298131C7298131C7298131C72949
:100F20008131C7298131C7298131C7298131C72939
:100F30008131C7298131C7298131C7298131C72929
:100F40008131C7298131C7298131C7298131C72919
:100F50008131C7298131C7298131C7298131C72909
:100F60008131C7298131C7298131C7298131C729F9
:100F70008131C7298131C7298131C7298131C729E9
:100F80008131C7298131C7298131C7298131C729D9
:100F90008131F9298131C7298131C7298131C72997
:100FA0008131C7298131F9298131C7298131C72987
:100FB0008131E32901340034003400340A34003430
:100FC000003400346434003400340034E834033432
:100FD000003400341034273400340034A034863414
:100FE00001340034403442340F34003480349634B9
:100FF000983400340034E134F53405340034CA3414
:101000009A343B342D34323431343434373434343C
:1010100038343334363434343834003431343234C0
:101020003034333437343634393437343834303478
:1010300000343234313433343634373434343734A2
:1010400038343834303400342D3438343434333494
:101050003934393435343934313435340034323478
:10106000313434343734343438343334363434343B
:0C1070003734003425346C346434003410
:020000040001F9
:06000E00FC3FFF3F9F3F95
:00000001FF
